:0C0000000C946D000C9400000C940000A7
:10000C000C9400000C9400000C9400000C94000064
:10001C000C9400000C9400000C9400000C94000054
:10002C000C9400000C9400000C9400000C94000044
:10003C000C9400000C9400000C9400000C94000034
:10004C000C9400000C9400001027E80364000A00D4
:10005C000100001000011000010000000000000071
:10006C000000000001000100504300434300202029
:10007C00003C003E005361766520746F2062616E17
:10008C006B2320004C6F61642062616E6B23200037
:10009C0058616E4C61622046532076322E3000003F
:1000AC0080C001002D4E414E00494E4600000A0012
:1000BC000400660001006B01700001006D0172000C
:1000CC0002006E01AC0001007501AE000000F89456
:1000DC00EE27ECBBF1E0FBBFEBBFE5BF8DE0A2E090
:1000EC00BB27ED938A95E9F780E094E0A0E6ED93C9
:1000FC000197E9F7EAEBF0E085919591009761F0B3
:10010C00A591B59105901590BF01F00105900D9248
:10011C000197E1F7FB01F0CFEFE5EDBFE4E0EEBFB7
:10012C00C0E6D1E00C94A301AA93A0EB0E94DE05DB
:10013C00A9810E94DE05A8810E94DE050C940905A8
:10014C00AA93A0EC0E94DE05A8810E94DE050C9407
:10015C00E305A0970E940B05E52D0E94E505DE0145
:10016C005E960E94B005DE015C960E944705E4E0B5
:10017C000E94EA05E42D0E94E505DE015A960E94D4
:10018C00B005DE0158960E944705E7E00E94EA059B
:10019C00DD2021F4A4E7B0E00E945605E1E0ED1566
:1001AC0021F4A7E7B0E00E945605E9E00E94EA05B9
:1001BC00E72D0E94E505DE0156960E94B005DE0192
:1001CC0054960E944705EDE00E94EA05E62D0E9438
:1001DC00E505DE0152960E94B005DE0150960E94A4
:1001EC004705E0E00E94EE05E92D0E94E505DE01E1
:1001FC001E960E94B005DE011C960E944705E4E0A5
:10020C000E94EE05E82D0E94E505DE011A960E947B
:10021C00B005DE0118960E944705E7E00E94EE0546
:10022C00AAE7B0E00E945605EB2D0E94E505DE0121
:10023C0016960E94B005DE0114960E944705EDE06B
:10024C000E94EE05EA2D0E94E5050E94F205E3E00E
:10025C000E94EA050E94F905ECE00E94EA050E9462
:10026C00F905E3E00E94EE050E94F905ECE00E941E
:10027C00EE050E94F9050E94FD0531F4E3E00E94B1
:10028C00EA05ADE7B0E03FC0E230A0E0FA0721F4A8
:10029C00E3E0EA93A0E033C0E330A0E0FA0731F4E6
:1002AC00ECE00E94EA05ADE7B0E02DC0E430A0E040
:1002BC00FA0721F4ECE0EA93A0E021C0E530A0E0DD
:1002CC00FA0731F4E3E00E94EE05ADE7B0E01BC0A5
:1002DC00E630A0E0FA0711F4E3E00FC0E730A0E04D
:1002EC00FA0731F4ECE00E94EE05ADE7B0E00BC08C
:1002FC00E830A0E0FA0749F4ECE0EA93A1E00E94B0
:10030C00F704AFE7B0E00E945605A0960895249735
:10031C000E940B05A1E8B0E005C024970E940B05D4
:10032C00A0E9B0E00E945605E0916D01F0E0FA936F
:10033C00EA930E94F20524960895EFEFEBBBE0E000
:10034C00EABBEFE0E8BBE0E0E7BBE5BBE4BBEAE11E
:10035C00E2BBE0E0E1BBE3BFE2BFECBFEFBDEEBD53
:10036C00EDBDECBDE7BDE6BDEBBDEABDE9BDE8BD4D
:10037C00E2BDE5BDE4BDE3BDE5BFE4BFE9BFEBB95C
:10038C00E8E0EAB9E6E8E0BDE0E0E0BDE7E0E9B9C5
:10039C00E0E8E8B9E0E0E0BFE7E0E7B9E5E8E6B9B6
:1003AC00A0E10E947B05ACE9B0E00E945605A8EEE6
:1003BC00B3E00E9488060E9405060E940A0608F413
:1003CC0055240E9405060E94130608F444240E943A
:1003DC0005060E941C0608F477240E9405060E945C
:1003EC00250608F466240E9405060E942E0608F4D1
:1003FC0099240E9405060E94370608F488240E945E
:10040C0005060E94400608F4BB240E9405060E94C3
:10041C00490608F4AA249DDE369AE4B1F5B10E948F
:10042C009206E0936701F0936801E0916901F09105
:10043C006A01A0916701B0916801EA17FB0769F0A6
:10044C00EBE0EA93A09167016FDEE0916701F09118
:10045C006801E0936901F0936A01B0994AC0F8947D
:10046C000E94FD0529F4EFE75E1608F453943EC094
:10047C00E230A0E0FA0729F4EFE74E1608F44394B3
:10048C0035C0E330A0E0FA0729F4EFE77E1608F454
:10049C0073942CC0E430A0E0FA0729F4EFE76E1651
:1004AC0008F4639423C0E530A0E0FA0729F4EFE7E1
:1004BC009E1608F493941AC0E630A0E0FA0729F4CB
:1004CC00EFE78E1608F4839411C0E730A0E0FA072A
:1004DC0029F4EFE7BE1608F4B39408C0E830A0E0A6
:1004EC00FA0721F4EFE7AE1608F4A3940E94520623
:1004FC007894B1994AC0F8940E94FD0529F4E0E083
:10050C00E51508F45A943EC0E230A0E0FA0729F44D
:10051C00E0E0E41508F44A9435C0E330A0E0FA07B3
:10052C0029F4E0E0E71508F47A942CC0E430A0E05C
:10053C00FA0729F4E0E0E61508F46A9423C0E530E4
:10054C00A0E0FA0729F4E0E0E91508F49A941AC03F
:10055C00E630A0E0FA0729F4E0E0E81508F48A9404
:10056C0011C0E730A0E0FA0729F4E0E0EB1508F43D
:10057C00BA9408C0E830A0E0FA0721F4E0E0EA15EC
:10058C0008F4AA940E9452067894B29960C00E9412
:10059C005806B29BFECFB09904C0A0916D01AA3051
:1005AC0008F009C0F894E0916D01EF5FE0936D01E4
:1005BC000E9458067894B19904C0A0916D01A230A4
:1005CC0008F409C0F894E0916D01E150E0936D01DD
:1005DC000E9458067894B29939C0F8940E94050686
:1005EC00E050F040DF01E52D0E945E06E65FFF4F14
:1005FC00DF01E42D0E945E06EC5EFF4FDF01E72D6C
:10060C000E945E06E25EFF4FDF01E62D0E945E0651
:10061C00E85DFF4FDF01E92D0E945E06EE5CFF4FA7
:10062C00DF01E82D0E945E06E45CFF4FDF01EB2D3D
:10063C000E945E06EA5BFF4FDF01EA2D0E94A506D1
:10064C000E945206B29BFECF789401C0A4CFB399FE
:10065C0063C00E946106B39BFECFB09904C0A09109
:10066C006D01AA3008F009C0F894E0916D01EF5FBC
:10067C00E0936D010E9461067894B19904C0A09139
:10068C006D01A23008F409C0F894E0916D01E150BD
:10069C00E0936D010E9461067894B3993CC0F89484
:1006AC000E9405060E940A0608F455240E940506BD
:1006BC000E94130608F444240E9405060E941C069E
:1006CC0008F477240E9405060E94250608F4662487
:1006DC000E9405060E942E0608F499240E94050625
:1006EC000E94370608F488240E9405060E944006E2
:1006FC0008F4BB240E9405060E94490608F4AA24AB
:10070C000E946706A52D0E94A6000E945206B39B6C
:10071C00FECF789401C0A1CFC8991DC0F894DD20FC
:10072C0041F4A52D0E94A6000E9467060E94AF000E
:10073C000BC0CC2019F4EFE7CE2E01C0CC24E0E4A2
:10074C00EA93AC2D0E949A00ACE2B1E00E948806BC
:10075C00C89BFECF7894C99921C0F894DD2041F450
:10076C00A42D0E94A600E2E0F0E00E946E060FC0ED
:10077C00E0916001E03011F4EFE701C0E0E0E093BC
:10078C006001E1E4EA93A09160010E949A00ACE25E
:10079C00B1E00E948806C99BFECF7894CA9921C00B
:1007AC00F894DD2041F4A72D0E94A600E3E0F0E0D0
:1007BC000E946E060FC0E0916101E03011F4EFE78A
:1007CC0001C0E0E0E0936101E2E4EA93A0916101F1
:1007DC000E949A00ACE2B1E00E948806CA9BFECF50
:1007EC007894CB991FC0F894DD2051F4A62D0E946B
:1007FC00A600E4E0F0E00E947406CB9BFECF0FC095
:10080C00E0916201E03011F4EFE701C0E0E0E09329
:10081C006201E3E4EA93A09162010E947906CB9B0A
:10082C00FECF7894CC991FC0F894DD2051F4A92DFB
:10083C000E94A600E5E0F0E00E947406CC9BFECF7F
:10084C000FC0E0916301E03011F4EFE701C0E0E08C
:10085C00E0936301E4E4EA93A09163010E947906BA
:10086C00CC9BFECF7894CD9921C0F894DD2041F437
:10087C00A82D0E94A600E6E0F0E00E946E060FC0D4
:10088C00E0916401E03011F4EFE701C0E0E0E093A7
:10089C006401E5E4EA93A09164010E949A00ACE241
:1008AC00B1E00E948806CD9BFECF7894CE9921C0F2
:1008BC00F894DD2041F4AB2D0E94A600E7E0F0E0B7
:1008CC000E946E060FC0E0916501E03011F4EFE775
:1008DC0001C0E0E0E0936501E6E4EA93A0916501D4
:1008EC000E949A00ACE2B1E00E948806CE9BFECF3B
:1008FC007894839921C0F894DD2041F4AA2D0E94AC
:10090C00A600E8E0F0E00E946E060FC0E0916601E0
:10091C00E03011F4EFE701C0E0E0E0936601E7E4BA
:10092C00EA93A09166010E949A00ACE2B1E00E94A9
:10093C008806839BFECF7894849910C0F894DD20B0
:10094C0019F4E1E0DE2E01C0DD240E94AF00A8EC1A
:10095C00B0E00E948806849BFECF78940C9412021F
:10096C00FFCFFFE0FA95F1F70895A4B3AF70A4BBE5
:10097C00A99AA898F6DFAA9AF4DFA3B3AA98F1DF94
:10098C00AA9AEFDFAA98A7FDF5CF0895A07FAB2B0D
:10099C00A5BBAA9A0E94B704AA980E94B70408950E
:1009AC00AA93A998A4B3A76FA4BBB5B3BF70A88131
:1009BC00EDDFA881A295EADFA99A0C94E305AA9A27
:1009CC000E94B704E3B3AA980E94B704E07F08958D
:1009DC000E94B704F4DFAE2FF2DFA998E295EA2B60
:1009EC000895AA930E94BB04E881F0E0E259FE4FFF
:1009FC00E081A981AE0F0E94D604E981E0937201D7
:100A0C00E881E0937301229608950E94BB04A2E052
:100A1C000E94D6040E94BB04ACE00E94D6040E9443
:100A2C00BB04A1E00E94D604E0E0E0937301E093E4
:100A3C0072010895AA93EF93FF93A8816894AA304A
:100A4C0039F0E894E0917401A0917201AE1758F05E
:100A5C00E0917301EF5FE0937301E0E0EA93A09102
:100A6C007301BFDF56F0E0917201EF5FE09372010A
:100A7C007CDFA89AA8810E94D604FF91EF910C9478
:100A8C00E305BA93AA931A93A981BA81ED91A9832C
:100A9C00BA831E2FE03019F0A12FCCDFF5CF10C098
:100AAC00BA93AA931A93E981FA813196E983FA836E
:100ABC003197E4911E2FE03019F0A12FBBDFF3CF5B
:100ACC00188123960895AA27BB271197F1F708954B
:100ADC00AA93A998A4B3A76FA4BBB5B3BF70A88100
:100AEC000E94CC04A99A0C94E305AA93AA98A898FE
:100AFC00E881E0937401E058E0937001E881E054E0
:100B0C00E09371010E947F060E947F060E947F067F
:100B1C00DADFA0E2DDDFD7DFA8E20E948406A4E0E2
:100B2C000E948406A5E80E948406A4B3AF70A4BBFF
:100B3C00A99A0E94EE04E53019F0E0E00C94E3056C
:100B4C000E94BB04A6E00E94D6040E940B05E1E0C3
:100B5C000C94E305BA93AA93A991B991E991F991EF
:100B6C0030962AF4E095F09531966DE26D93E89409
:100B7C0080E197E20DD088EE93E00AD084E69927C5
:100B8C0007D08AE005D06E2F10D066276C9308959D
:100B9C006627E817F90720F06395E81BF90BC9F7EE
:100BAC00662311F416F008956894605D6D930895B2
:100BBC00AA935D9BFECFE881ECB921960895F0E0F5
:100BCC003196FA93EA930895EA93A0E00C94F70413
:100BDC00EA93A1E00C94F704DE0112960E94B00592
:100BEC00DE010C944705ABE7B0E00C945605E091A0
:100BFC006B01F0916C01E130A0E0FA070895E091EF
:100C0C006D01F0E031970895E050F040DF010E9453
:100C1C0099065E2EEFE7E5150895E65FFF4FDF01BD
:100C2C000E9499064E2EEFE7E4150895EC5EFF4FF7
:100C3C00DF010E9499067E2EEFE7E7150895E25E2C
:100C4C00FF4FDF010E9499066E2EEFE7E61508951F
:100C5C00E85DFF4FDF010E9499069E2EEFE7E91534
:100C6C000895EE5CFF4FDF010E9499068E2EEFE790
:100C7C00E8150895E45CFF4FDF010E949906BE2E33
:100C8C00EFE7EB150895EA5BFF4FDF010E94990631
:100C9C00AE2EEFE7EA1508950E94AF00ACE2B1E08A
:100CAC000C9488060E948D01ACE2B1E00C9488068D
:100CBC000E94A506A4CF0E949301ACE2B1E00C9473
:100CCC008806E1E0F0E0E0936B01F0936C0108958D
:100CDC00E0936B01F0936C010C94AF00E0936B010B
:100CEC00F0936C01D9CF0E949A00ACE2B1E00C9465
:100CFC0088060E946905A0E30C946E050E94D60438
:100D0C000C946905109639F088EE93E00197F1F791
:100D1C00A8951197C9F70895F695E795F695E79577
:100D2C00F695E7950895E199FECFFF93FFB7F894F8
:100D3C00AEBBBFBBE09AEDB3FFBFFF910895E19B43
:100D4C0002C0A895FCCF9FB7F894AEBBBFBBE09A8E
:100D5C008DB3E81719F0EDBBE29AE19A9FBF0895A5
:00000001FF
