:0E0000000C946D000C9400000C9400000C9405
:10000E0000000C9400000C9400000C9400000C9462
:10001E0000000C9400000C9400000C9400000C9452
:10002E0000000C9400000C9400000C9400000C9442
:10003E0000000C9400000C9400000C9400000C9432
:10004E0000000C9400001027E80364000A00010071
:10005E000010000110000100000000000000000070
:10006E000000010001005043004343002020003CEB
:10007E00003E005361766520746F2062616E6B23C3
:10008E0020004C6F61642062616E6B23200058610A
:10009E006E4C61622046532076322E30000080C0B6
:1000AE0001002D4E414E00494E4600000A0004004C
:1000BE00660001006B01700001006D01720002000C
:1000CE006E01AC0001007501AE000000F894EE2741
:1000DE00ECBBF1E0FBBFEBBFE5BF8DE0A2E0BB27C1
:1000EE00ED938A95E9F780E094E0A0E6ED93019711
:1000FE00E9F7EAEBF0E085919591009761F0A59113
:10010E00B59105901590BF01F00105900D920197E4
:10011E00E1F7FB01F0CFEFE5EDBFE4E0EEBFC0E6A7
:10012E00D1E00C94A301AA93A0EB0E94F105A98142
:10013E000E94F105A8810E94F1050C941C05AA935A
:10014E00A0EC0E94F105A8810E94F1050C94F60521
:10015E00A0970E941E05E52D0E94F805DE015E9611
:10016E000E94C305DE015C960E945A05E4E00E94DF
:10017E00FD05E42D0E94F805DE015A960E94C30586
:10018E00DE0158960E945A05E7E00E94FD05DD202B
:10019E0021F4A4E7B0E00E946905E1E0ED1521F439
:1001AE00A7E7B0E00E946905E9E00E94FD05E72D92
:1001BE000E94F805DE0156960E94C305DE01549694
:1001CE000E945A05EDE00E94FD05E62D0E94F805FD
:1001DE00DE0152960E94C305DE0150960E945A051A
:1001EE00E0E00E940106E92D0E94F805DE011E9650
:1001FE000E94C305DE011C960E945A05E4E00E948F
:10020E000106E82D0E94F805DE011A960E94C3052C
:10021E00DE0118960E945A05E7E00E940106AAE741
:10022E00B0E00E946905EB2D0E94F805DE011696DE
:10023E000E94C305DE0114960E945A05EDE00E944D
:10024E000106EA2D0E94F8050E940506E3E00E94D1
:10025E00FD050E940C06ECE00E94FD050E940C06B6
:10026E00E3E00E9401060E940C06ECE00E940106EB
:10027E000E940C060E94100631F4E3E00E94FD0578
:10028E00ADE7B0E03FC0E230A0E0FA0721F4E3E0D2
:10029E00EA93A0E033C0E330A0E0FA0731F4ECE0DB
:1002AE000E94FD05ADE7B0E02DC0E430A0E0FA07F6
:1002BE0021F4ECE0EA93A0E021C0E530A0E0FA07DB
:1002CE0031F4E3E00E940106ADE7B0E01BC0E6307A
:1002DE00A0E0FA0711F4E3E00FC0E730A0E0FA0760
:1002EE0031F4ECE00E940106ADE7B0E00BC0E8305F
:1002FE00A0E0FA0749F4ECE0EA93A1E00E940A05B7
:10030E00AFE7B0E00E946905A096089524970E9479
:10031E001E05A1E8B0E005C024970E941E05A0E9C5
:10032E00B0E00E946905E0916D01F0E0FA93EA9366
:10033E000E94050624960895EFEFEBBBE0E0EABBC2
:10034E00EFE0E8BBE0E0E7BBE5BBE4BBEAE1E2BB24
:10035E00E0E0E1BBE3BFE2BFECBFEFBDEEBDEDBD44
:10036E00ECBDE7BDE6BDEBBDEABDE9BDE8BDE2BD56
:10037E00E5BDE4BDE3BDE5BFE4BFE9BFEBB9E8E031
:10038E00EAB9E6E8E0BDE0E0E0BDE7E0E9B9E0E8C3
:10039E00E8B9E0E0E0BFE7E0E7B9E7E8E6B9A0E1F9
:1003AE000E948E05ACE9B0E00E946905A8EEB3E0AC
:1003BE000E949B060E9418060E941D0608F45524F2
:1003CE000E9418060E94260608F444240E9418066D
:1003DE000E942F0608F477240E9418060E94380601
:1003EE0008F466240E9418060E94410608F4992417
:1003FE000E9418060E944A0608F488240E941806D5
:10040E000E94530608F4BB240E9418060E945C0644
:10041E0008F4AA249DDE369AE4B1F5B10E94A50631
:10042E003397E0936701F0936801A0916701B09153
:10043E006801A137E0E0BE0730F0EFE7F0E0E093AF
:10044E006701F0936801E0916901F0916A01A09152
:10045E006701B0916801EA17FB0789F0EBE0EA93B8
:10046E00A091670160DEE0916701F0916801E09371
:10047E006901F0936A01AEE1B0E00E949B06B0996B
:10048E004AC0F8940E94100629F4EFE75E1608F4AD
:10049E0053943EC0E230A0E0FA0729F4EFE74E167F
:1004AE0008F4439435C0E330A0E0FA0729F4EFE7EF
:1004BE007E1608F473942CC0E430A0E0FA0729F4F9
:1004CE00EFE76E1608F4639423C0E530A0E0FA0758
:1004DE0029F4EFE79E1608F493941AC0E630A0E0D4
:1004EE00FA0729F4EFE78E1608F4839411C0E7306B
:1004FE00A0E0FA0729F4EFE7BE1608F4B39408C09B
:10050E00E830A0E0FA0721F4EFE7AE1608F4A39462
:10051E000E9465067894B1994AC0F8940E9410061C
:10052E0029F4E0E0E51508F45A943EC0E230A0E06C
:10053E00FA0729F4E0E0E41508F44A9435C0E330F4
:10054E00A0E0FA0729F4E0E0E71508F47A942CC04D
:10055E00E430A0E0FA0729F4E0E0E61508F46A9426
:10056E0023C0E530A0E0FA0729F4E0E0E91508F42D
:10057E009A941AC0E630A0E0FA0729F4E0E0E815F4
:10058E0008F48A9411C0E730A0E0FA0729F4E0E0FD
:10059E00EB1508F4BA9408C0E830A0E0FA0721F48D
:1005AE00E0E0EA1508F4AA940E9465067894B299E0
:1005BE0060C00E946B06B29BFECFB09904C0A091A2
:1005CE006D01AA3008F009C0F894E0916D01EF5F5B
:1005DE00E0936D010E946B067894B19904C0A091CE
:1005EE006D01A23008F409C0F894E0916D01E1505C
:1005FE00E0936D010E946B067894B29939C0F8941D
:10060E000E941806E050F040DF01E52D0E947106B1
:10061E00E65FFF4FDF01E42D0E947106EC5EFF4F97
:10062E00DF01E72D0E947106E25EFF4FDF01E62D2E
:10063E000E947106E85DFF4FDF01E92D0E947106F1
:10064E00EE5CFF4FDF01E82D0E947106E45CFF4F68
:10065E00DF01EB2D0E947106EA5BFF4FDF01EA2DF1
:10066E000E94B6060E946506B29BFECF789401C02A
:10067E00A4CFB39963C00E947406B39BFECFB0990A
:10068E0004C0A0916D01AA3008F009C0F894E09161
:10069E006D01EF5FE0936D010E9474067894B1993D
:1006AE0004C0A0916D01A23008F409C0F894E09145
:1006BE006D01E150E0936D010E9474067894B39938
:1006CE003CC0F8940E9418060E941D0608F455249A
:1006DE000E9418060E94260608F444240E9418065A
:1006EE000E942F0608F477240E9418060E943806EE
:1006FE0008F466240E9418060E94410608F4992404
:10070E000E9418060E944A0608F488240E941806C1
:10071E000E94530608F4BB240E9418060E945C0631
:10072E0008F4AA240E947A06A52D0E94A6000E9413
:10073E006506B39BFECF789401C0A1CFC8991DC0AA
:10074E00F894DD2041F4A52D0E94A6000E947A06A1
:10075E000E94AF000BC0CC2019F4EFE7CE2E01C0E3
:10076E00CC24E0E4EA93AC2D0E949A00ACE2B1E016
:10077E000E949B06C89BFECF7894C99921C0F8941D
:10078E00DD2041F4A42D0E94A600E2E0F0E00E94DC
:10079E0081060FC0E0916001E03011F4EFE701C077
:1007AE00E0E0E0936001E1E4EA93A09160010E9431
:1007BE009A00ACE2B1E00E949B06C99BFECF7894F2
:1007CE00CA9921C0F894DD2041F4A72D0E94A600FD
:1007DE00E3E0F0E00E9481060FC0E0916101E0309D
:1007EE0011F4EFE701C0E0E0E0936101E2E4EA9387
:1007FE00A09161010E949A00ACE2B1E00E949B06BA
:10080E00CA9BFECF7894CB991FC0F894DD2051F48B
:10081E00A62D0E94A600E4E0F0E00E948706CB9B86
:10082E00FECF0FC0E0916201E03011F4EFE701C09E
:10083E00E0E0E0936201E3E4EA93A09162010E949A
:10084E008C06CB9BFECF7894CC991FC0F894DD20FC
:10085E0051F4A92D0E94A600E5E0F0E00E94870663
:10086E00CC9BFECF0FC0E0916301E03011F4EFE7B7
:10087E0001C0E0E0E0936301E4E4EA93A091630138
:10088E000E948C06CC9BFECF7894CD9921C0F89413
:10089E00DD2041F4A82D0E94A600E6E0F0E00E94C3
:1008AE0081060FC0E0916401E03011F4EFE701C062
:1008BE00E0E0E0936401E5E4EA93A09164010E9414
:1008CE009A00ACE2B1E00E949B06CD9BFECF7894DD
:1008DE00CE9921C0F894DD2041F4AB2D0E94A600E4
:1008EE00E7E0F0E00E9481060FC0E0916501E03084
:1008FE0011F4EFE701C0E0E0E0936501E6E4EA936E
:10090E00A09165010E949A00ACE2B1E00E949B06A4
:10091E00CE9BFECF7894839921C0F894DD2041F4CC
:10092E00AA2D0E94A600E8E0F0E00E9481060FC00A
:10093E00E0916601E03011F4EFE701C0E0E0E093F2
:10094E006601E7E4EA93A09166010E949A00ACE288
:10095E00B1E00E949B06839BFECF7894849910C0D1
:10096E00F894DD2019F4E1E0DE2E01C0DD240E94B2
:10097E00AF00A8ECB0E00E949B06849BFECF78945B
:10098E000C941202FFCFFFE0FA95F1F70895A4B38D
:10099E00AF70A4BBA99AA898F6DFAA9AF4DFA3B306
:1009AE00AA98F1DFAA9AEFDFAA98A7FDF5CF0895CE
:1009BE00A07FAB2BA5BBAA9A0E94CA04AA980E943C
:1009CE00CA040895AA93A998A4B3A76FA4BBB5B3FC
:1009DE00BF70A881EDDFA881A295EADFA99A0C94D9
:1009EE00F605AA9A0E94CA04E3B3AA980E94CA0402
:1009FE00E07F08950E94CA04F4DFAE2FF2DFA998BB
:100A0E00E295EA2B0895AA930E94CE04E881F0E0C5
:100A1E00E259FE4FE081A981AE0F0E94E904E981FF
:100A2E00E0937201E881E0937301229608950E948B
:100A3E00CE04A2E00E94E9040E94CE04ACE00E9423
:100A4E00E9040E94CE04A1E00E94E904E0E0E093F4
:100A5E007301E09372010895AA93EF93FF93A88117
:100A6E006894AA3039F0E894E0917401A091720173
:100A7E00AE1758F0E0917301EF5FE0937301E0E081
:100A8E00EA93A0917301BFDF56F0E0917201EF5F20
:100A9E00E09372017CDFA89AA8810E94E904FF917D
:100AAE00EF910C94F605BA93AA931A93A981BA8181
:100ABE00ED91A983BA831E2FE03019F0A12FCCDF60
:100ACE00F5CF10C0BA93AA931A93E981FA813196A1
:100ADE00E983FA833197E4911E2FE03019F0A12FAC
:100AEE00BBDFF3CF188123960895AA27BB27119752
:100AFE00F1F70895AA93A998A4B3A76FA4BBB5B3B1
:100B0E00BF70A8810E94DF04A99A0C94F605AA93DF
:100B1E00AA98A898E881E0937401E058E0937001D8
:100B2E00E881E054E09371010E9492060E949206C1
:100B3E000E949206DADFA0E2DDDFD7DFA8E20E9494
:100B4E009706A4E00E949706A5E80E949706A4B314
:100B5E00AF70A4BBA99A0E940105E53019F0E0E040
:100B6E000C94F6050E94CE04A6E00E94E9040E94B1
:100B7E001E05E1E00C94F605BA93AA93A991B991DA
:100B8E00E991F99130962AF4E095F09531966DE25F
:100B9E006D93E89480E197E20DD088EE93E00AD051
:100BAE0084E6992707D08AE005D06E2F10D06627ED
:100BBE006C9308956627E817F90720F06395E81BF4
:100BCE00F90BC9F7662311F416F008956894605D69
:100BDE006D930895AA935D9BFECFE881ECB92196A3
:100BEE000895F0E03196FA93EA930895EA93A0E01F
:100BFE000C940A05EA93A1E00C940A05DE01129604
:100C0E000E94C305DE010C945A05ABE7B0E00C94CC
:100C1E006905E0916B01F0916C01E130A0E0FA07FB
:100C2E000895E0916D01F0E031970895E050F040A5
:100C3E00DF010E94AA065E2EEFE7E5150895E65F36
:100C4E00FF4FDF010E94AA064E2EEFE7E41508952E
:100C5E00EC5EFF4FDF010E94AA067E2EEFE7E7153E
:100C6E000895E25EFF4FDF010E94AA066E2EEFE7A7
:100C7E00E6150895E85DFF4FDF010E94AA069E2E3D
:100C8E00EFE7E9150895EE5CFF4FDF010E94AA061B
:100C9E008E2EEFE7E8150895E45CFF4FDF010E940A
:100CAE00AA06BE2EEFE7EB150895EA5BFF4FDF01B4
:100CBE000E94AA06AE2EEFE7EA1508950E94AF0035
:100CCE00ACE2B1E00C949B060E948D01ACE2B1E067
:100CDE000C949B060E94B606A4CF0E949301ACE230
:100CEE00B1E00C949B06E1E0F0E0E0936B01F09331
:100CFE006C010895E0936B01F0936C010C94AF00BE
:100D0E00E0936B01F0936C01D9CF0E949A00ACE294
:100D1E00B1E00C949B060E947C05A0E30C94810527
:100D2E000E94E9040C947C05109639F088EE93E04D
:100D3E000197F1F7A8951197C9F70895F695E795DC
:100D4E00F695E7950895E199FECFFF93FFB7F894D6
:100D5E00AEBBBFBBE09AEDB3FFBFFF910895E19B21
:100D6E0002C0A895FCCF9FB7F894AEBBBFBBE09A6C
:100D7E008DB3E81719F0EDBBE29AE19A9FBF089583
:00000001FF
